{
  "contractName": "AssertExchange",
  "abi": [
    {
      "anonymous": false,
      "inputs": [
        {
          "indexed": false,
          "internalType": "uint256",
          "name": "id",
          "type": "uint256"
        },
        {
          "indexed": false,
          "internalType": "address",
          "name": "seller",
          "type": "address"
        },
        {
          "indexed": false,
          "internalType": "uint256",
          "name": "amount",
          "type": "uint256"
        },
        {
          "indexed": false,
          "internalType": "address",
          "name": "tokenAddress",
          "type": "address"
        },
        {
          "indexed": false,
          "internalType": "uint256",
          "name": "price",
          "type": "uint256"
        }
      ],
      "name": "ETHForPotatoListed",
      "type": "event"
    },
    {
      "anonymous": false,
      "inputs": [
        {
          "indexed": false,
          "internalType": "uint256",
          "name": "id",
          "type": "uint256"
        },
        {
          "indexed": false,
          "internalType": "address",
          "name": "buyer",
          "type": "address"
        }
      ],
      "name": "ETHForTokenPurchased",
      "type": "event"
    },
    {
      "anonymous": false,
      "inputs": [
        {
          "indexed": false,
          "internalType": "uint256",
          "name": "id",
          "type": "uint256"
        },
        {
          "indexed": false,
          "internalType": "address",
          "name": "seller",
          "type": "address"
        },
        {
          "indexed": false,
          "internalType": "address",
          "name": "tokenAddress",
          "type": "address"
        },
        {
          "indexed": false,
          "internalType": "uint256",
          "name": "tokenId",
          "type": "uint256"
        },
        {
          "indexed": false,
          "internalType": "uint256",
          "name": "price",
          "type": "uint256"
        }
      ],
      "name": "NFTForEthListed",
      "type": "event"
    },
    {
      "anonymous": false,
      "inputs": [
        {
          "indexed": false,
          "internalType": "uint256",
          "name": "id",
          "type": "uint256"
        },
        {
          "indexed": false,
          "internalType": "address",
          "name": "buyer",
          "type": "address"
        }
      ],
      "name": "NFTPurchased",
      "type": "event"
    },
    {
      "anonymous": false,
      "inputs": [
        {
          "indexed": true,
          "internalType": "address",
          "name": "previousOwner",
          "type": "address"
        },
        {
          "indexed": true,
          "internalType": "address",
          "name": "newOwner",
          "type": "address"
        }
      ],
      "name": "OwnershipTransferred",
      "type": "event"
    },
    {
      "anonymous": false,
      "inputs": [
        {
          "indexed": false,
          "internalType": "uint256",
          "name": "id",
          "type": "uint256"
        },
        {
          "indexed": false,
          "internalType": "address",
          "name": "seller",
          "type": "address"
        },
        {
          "indexed": false,
          "internalType": "address",
          "name": "tokenAddress",
          "type": "address"
        },
        {
          "indexed": false,
          "internalType": "uint256",
          "name": "amount",
          "type": "uint256"
        },
        {
          "indexed": false,
          "internalType": "address",
          "name": "nftAddress",
          "type": "address"
        },
        {
          "indexed": false,
          "internalType": "uint256",
          "name": "tokenId",
          "type": "uint256"
        }
      ],
      "name": "PotatoForNFTListed",
      "type": "event"
    },
    {
      "anonymous": false,
      "inputs": [
        {
          "indexed": false,
          "internalType": "uint256",
          "name": "id",
          "type": "uint256"
        },
        {
          "indexed": false,
          "internalType": "address",
          "name": "buyer",
          "type": "address"
        }
      ],
      "name": "PotatoForNFTPurchased",
      "type": "event"
    },
    {
      "inputs": [
        {
          "internalType": "address",
          "name": "",
          "type": "address"
        },
        {
          "internalType": "address",
          "name": "",
          "type": "address"
        }
      ],
      "name": "balance20",
      "outputs": [
        {
          "internalType": "uint256",
          "name": "",
          "type": "uint256"
        }
      ],
      "stateMutability": "view",
      "type": "function"
    },
    {
      "inputs": [
        {
          "internalType": "address",
          "name": "",
          "type": "address"
        },
        {
          "internalType": "uint256",
          "name": "",
          "type": "uint256"
        }
      ],
      "name": "balance721",
      "outputs": [
        {
          "internalType": "address",
          "name": "",
          "type": "address"
        }
      ],
      "stateMutability": "view",
      "type": "function"
    },
    {
      "inputs": [
        {
          "internalType": "address",
          "name": "",
          "type": "address"
        }
      ],
      "name": "balanceETH",
      "outputs": [
        {
          "internalType": "uint256",
          "name": "",
          "type": "uint256"
        }
      ],
      "stateMutability": "view",
      "type": "function"
    },
    {
      "inputs": [
        {
          "internalType": "uint256",
          "name": "",
          "type": "uint256"
        }
      ],
      "name": "basketETHForPotato",
      "outputs": [
        {
          "internalType": "uint256",
          "name": "amountETH",
          "type": "uint256"
        },
        {
          "internalType": "address",
          "name": "seller",
          "type": "address"
        },
        {
          "internalType": "address",
          "name": "tokenAddress",
          "type": "address"
        },
        {
          "internalType": "uint256",
          "name": "tokenAmount",
          "type": "uint256"
        }
      ],
      "stateMutability": "view",
      "type": "function"
    },
    {
      "inputs": [
        {
          "internalType": "uint256",
          "name": "",
          "type": "uint256"
        }
      ],
      "name": "basketNFTForETH",
      "outputs": [
        {
          "internalType": "address",
          "name": "tokenAddress",
          "type": "address"
        },
        {
          "internalType": "uint256",
          "name": "tokenId",
          "type": "uint256"
        },
        {
          "internalType": "string",
          "name": "tokenURI",
          "type": "string"
        },
        {
          "internalType": "uint256",
          "name": "price",
          "type": "uint256"
        },
        {
          "internalType": "address",
          "name": "seller",
          "type": "address"
        }
      ],
      "stateMutability": "view",
      "type": "function"
    },
    {
      "inputs": [
        {
          "internalType": "uint256",
          "name": "",
          "type": "uint256"
        }
      ],
      "name": "basketPotatoForNFT",
      "outputs": [
        {
          "internalType": "address",
          "name": "seller",
          "type": "address"
        },
        {
          "internalType": "address",
          "name": "tokenAddress",
          "type": "address"
        },
        {
          "internalType": "uint256",
          "name": "amount",
          "type": "uint256"
        },
        {
          "internalType": "address",
          "name": "nftAddress",
          "type": "address"
        },
        {
          "internalType": "uint256",
          "name": "tokenId",
          "type": "uint256"
        }
      ],
      "stateMutability": "view",
      "type": "function"
    },
    {
      "inputs": [],
      "name": "owner",
      "outputs": [
        {
          "internalType": "address",
          "name": "",
          "type": "address"
        }
      ],
      "stateMutability": "view",
      "type": "function"
    },
    {
      "inputs": [],
      "name": "renounceOwnership",
      "outputs": [],
      "stateMutability": "nonpayable",
      "type": "function"
    },
    {
      "inputs": [
        {
          "internalType": "address",
          "name": "newOwner",
          "type": "address"
        }
      ],
      "name": "transferOwnership",
      "outputs": [],
      "stateMutability": "nonpayable",
      "type": "function"
    },
    {
      "inputs": [
        {
          "internalType": "address",
          "name": "",
          "type": "address"
        },
        {
          "internalType": "address",
          "name": "",
          "type": "address"
        }
      ],
      "name": "userNFTCount",
      "outputs": [
        {
          "internalType": "uint256",
          "name": "",
          "type": "uint256"
        }
      ],
      "stateMutability": "view",
      "type": "function"
    },
    {
      "inputs": [],
      "name": "depositETH",
      "outputs": [],
      "stateMutability": "payable",
      "type": "function"
    },
    {
      "inputs": [
        {
          "internalType": "address",
          "name": "tokenAddress",
          "type": "address"
        },
        {
          "internalType": "uint256",
          "name": "amount",
          "type": "uint256"
        }
      ],
      "name": "depositPotato",
      "outputs": [],
      "stateMutability": "nonpayable",
      "type": "function"
    },
    {
      "inputs": [
        {
          "internalType": "address",
          "name": "tokenAddress",
          "type": "address"
        },
        {
          "internalType": "uint256",
          "name": "tokenId",
          "type": "uint256"
        }
      ],
      "name": "depositNFT",
      "outputs": [],
      "stateMutability": "nonpayable",
      "type": "function"
    },
    {
      "inputs": [
        {
          "internalType": "address",
          "name": "tokenAddress",
          "type": "address"
        },
        {
          "internalType": "uint256",
          "name": "tokenId",
          "type": "uint256"
        },
        {
          "internalType": "uint256",
          "name": "price",
          "type": "uint256"
        }
      ],
      "name": "listNFTForETH",
      "outputs": [],
      "stateMutability": "nonpayable",
      "type": "function"
    },
    {
      "inputs": [
        {
          "internalType": "address",
          "name": "tokenAddress",
          "type": "address"
        },
        {
          "internalType": "uint256",
          "name": "amount",
          "type": "uint256"
        },
        {
          "internalType": "address",
          "name": "nftAddress",
          "type": "address"
        },
        {
          "internalType": "uint256",
          "name": "tokenId",
          "type": "uint256"
        }
      ],
      "name": "listPotatoForNFT",
      "outputs": [],
      "stateMutability": "nonpayable",
      "type": "function"
    },
    {
      "inputs": [
        {
          "internalType": "uint256",
          "name": "id",
          "type": "uint256"
        }
      ],
      "name": "buyNFT",
      "outputs": [],
      "stateMutability": "payable",
      "type": "function"
    },
    {
      "inputs": [
        {
          "internalType": "uint256",
          "name": "id",
          "type": "uint256"
        }
      ],
      "name": "buyPotatoByNFT",
      "outputs": [],
      "stateMutability": "payable",
      "type": "function"
    },
    {
      "inputs": [
        {
          "internalType": "uint256",
          "name": "amount",
          "type": "uint256"
        }
      ],
      "name": "withdrawETH",
      "outputs": [],
      "stateMutability": "nonpayable",
      "type": "function"
    },
    {
      "inputs": [
        {
          "internalType": "address",
          "name": "tokenAddress",
          "type": "address"
        },
        {
          "internalType": "uint256",
          "name": "amount",
          "type": "uint256"
        }
      ],
      "name": "withdrawERC20",
      "outputs": [],
      "stateMutability": "nonpayable",
      "type": "function"
    },
    {
      "inputs": [
        {
          "internalType": "address",
          "name": "tokenAddress",
          "type": "address"
        },
        {
          "internalType": "uint256",
          "name": "tokenId",
          "type": "uint256"
        }
      ],
      "name": "withdrawERC721",
      "outputs": [],
      "stateMutability": "nonpayable",
      "type": "function"
    }
  ],
  "bytecode": "0x60806040523480156200001157600080fd5b5062000032620000266200003860201b60201c565b6200004060201b60201c565b62000104565b600033905090565b60008060009054906101000a900473ffffffffffffffffffffffffffffffffffffffff169050816000806101000a81548173ffffffffffffffffffffffffffffffffffffffff021916908373ffffffffffffffffffffffffffffffffffffffff1602179055508173ffffffffffffffffffffffffffffffffffffffff168173ffffffffffffffffffffffffffffffffffffffff167f8be0079c531659141344cd1fd0a4f28419497f9722a3daafe3b4186f6b6457e060405160405180910390a35050565b613b4580620001146000396000f3fe60806040526004361061011f5760003560e01c80639b5b9b18116100a0578063bf8e181a11610064578063bf8e181a146103e0578063f14210a614610421578063f2fde38b1461044a578063f3e414f814610473578063f6326fb31461049c5761011f565b80639b5b9b18146102e8578063a1db978214610311578063b2630e1e1461033a578063bc2e238614610363578063bc7665da146103a35761011f565b80637e5e3379116100e75780637e5e3379146101fa578063879edfc5146102165780638da5cb5b14610257578063903e5f4e14610282578063918beb0c146102bf5761011f565b8063337fdb99146101245780633b11e5c81461016157806351ed82881461019e578063589d4ebe146101ba578063715018a6146101e3575b600080fd5b34801561013057600080fd5b5061014b600480360381019061014691906128a0565b6104a6565b60405161015891906128f9565b60405180910390f35b34801561016d57600080fd5b5061018860048036038101906101839190612914565b6104cb565b60405161019591906128f9565b60405180910390f35b6101b860048036038101906101b3919061296d565b6104e3565b005b3480156101c657600080fd5b506101e160048036038101906101dc919061299a565b610b07565b005b3480156101ef57600080fd5b506101f8610ef1565b005b610214600480360381019061020f919061296d565b610f05565b005b34801561022257600080fd5b5061023d6004803603810190610238919061296d565b61167b565b60405161024e959493929190612aa0565b60405180910390f35b34801561026357600080fd5b5061026c611779565b6040516102799190612afa565b60405180910390f35b34801561028e57600080fd5b506102a960048036038101906102a49190612b15565b6117a2565b6040516102b69190612afa565b60405180910390f35b3480156102cb57600080fd5b506102e660048036038101906102e19190612b15565b6117e4565b005b3480156102f457600080fd5b5061030f600480360381019061030a9190612b15565b611965565b005b34801561031d57600080fd5b5061033860048036038101906103339190612b15565b611af9565b005b34801561034657600080fd5b50610361600480360381019061035c9190612b55565b611d0c565b005b34801561036f57600080fd5b5061038a6004803603810190610385919061296d565b61213b565b60405161039a9493929190612ba8565b60405180910390f35b3480156103af57600080fd5b506103ca60048036038101906103c591906128a0565b6121ab565b6040516103d791906128f9565b60405180910390f35b3480156103ec57600080fd5b506104076004803603810190610402919061296d565b6121d0565b604051610418959493929190612bed565b60405180910390f35b34801561042d57600080fd5b506104486004803603810190610443919061296d565b612266565b005b34801561045657600080fd5b50610471600480360381019061046c9190612914565b612388565b005b34801561047f57600080fd5b5061049a60048036038101906104959190612b15565b61240b565b005b6104a46125ec565b005b6004602052816000526040600020602052806000526040600020600091509150505481565b60016020528060005260406000206000915090505481565b6000600560008381526020019081526020016000206040518060a00160405290816000820160009054906101000a900473ffffffffffffffffffffffffffffffffffffffff1673ffffffffffffffffffffffffffffffffffffffff1673ffffffffffffffffffffffffffffffffffffffff1681526020016001820154815260200160028201805461057390612c6f565b80601f016020809104026020016040519081016040528092919081815260200182805461059f90612c6f565b80156105ec5780601f106105c1576101008083540402835291602001916105ec565b820191906000526020600020905b8154815290600101906020018083116105cf57829003601f168201915b50505050508152602001600382015481526020016004820160009054906101000a900473ffffffffffffffffffffffffffffffffffffffff1673ffffffffffffffffffffffffffffffffffffffff1673ffffffffffffffffffffffffffffffffffffffff16815250509050600073ffffffffffffffffffffffffffffffffffffffff16816000015173ffffffffffffffffffffffffffffffffffffffff16036106ca576040517f08c379a00000000000000000000000000000000000000000000000000000000081526004016106c190612cec565b60405180910390fd5b8060600151600160003373ffffffffffffffffffffffffffffffffffffffff1673ffffffffffffffffffffffffffffffffffffffff168152602001908152602001600020541015610750576040517f08c379a000000000000000000000000000000000000000000000000000000000815260040161074790612d58565b60405180910390fd5b8060600151600160003373ffffffffffffffffffffffffffffffffffffffff1673ffffffffffffffffffffffffffffffffffffffff16815260200190815260200160002060008282546107a39190612da7565b92505081905550806060015160016000836080015173ffffffffffffffffffffffffffffffffffffffff1673ffffffffffffffffffffffffffffffffffffffff16815260200190815260200160002060008282546108019190612ddb565b92505081905550806000015173ffffffffffffffffffffffffffffffffffffffff166323b872dd303384602001516040518463ffffffff1660e01b815260040161084d93929190612e0f565b600060405180830381600087803b15801561086757600080fd5b505af115801561087b573d6000803e3d6000fd5b5050505060046000826080015173ffffffffffffffffffffffffffffffffffffffff1673ffffffffffffffffffffffffffffffffffffffff1681526020019081526020016000206000826000015173ffffffffffffffffffffffffffffffffffffffff1673ffffffffffffffffffffffffffffffffffffffff168152602001908152602001600020600081548092919061091490612e46565b9190505550600460003373ffffffffffffffffffffffffffffffffffffffff1673ffffffffffffffffffffffffffffffffffffffff1681526020019081526020016000206000826000015173ffffffffffffffffffffffffffffffffffffffff1673ffffffffffffffffffffffffffffffffffffffff16815260200190815260200160002060008154809291906109aa90612e6f565b91905055503360036000836000015173ffffffffffffffffffffffffffffffffffffffff1673ffffffffffffffffffffffffffffffffffffffff16815260200190815260200160002060008360200151815260200190815260200160002060006101000a81548173ffffffffffffffffffffffffffffffffffffffff021916908373ffffffffffffffffffffffffffffffffffffffff16021790555060056000838152602001908152602001600020600080820160006101000a81549073ffffffffffffffffffffffffffffffffffffffff02191690556001820160009055600282016000610a9991906127d1565b60038201600090556004820160006101000a81549073ffffffffffffffffffffffffffffffffffffffff021916905550507fbebca6653c629a651174dc2ea9b9f7ef506290dee89fe1a6087eb1e12c06d4308233604051610afb929190612eb7565b60405180910390a15050565b60008311610b4a576040517f08c379a0000000000000000000000000000000000000000000000000000000008152600401610b4190612f2c565b60405180910390fd5b828473ffffffffffffffffffffffffffffffffffffffff166370a08231306040518263ffffffff1660e01b8152600401610b849190612afa565b602060405180830381865afa158015610ba1573d6000803e3d6000fd5b505050506040513d601f19601f82011682018060405250810190610bc59190612f61565b101580610c4e575082600260008673ffffffffffffffffffffffffffffffffffffffff1673ffffffffffffffffffffffffffffffffffffffff16815260200190815260200160002060003373ffffffffffffffffffffffffffffffffffffffff1673ffffffffffffffffffffffffffffffffffffffff1681526020019081526020016000205410155b15610dc2576040518060a001604052803373ffffffffffffffffffffffffffffffffffffffff1681526020018573ffffffffffffffffffffffffffffffffffffffff1681526020018481526020018373ffffffffffffffffffffffffffffffffffffffff1681526020018281525060066000600954815260200190815260200160002060008201518160000160006101000a81548173ffffffffffffffffffffffffffffffffffffffff021916908373ffffffffffffffffffffffffffffffffffffffff16021790555060208201518160010160006101000a81548173ffffffffffffffffffffffffffffffffffffffff021916908373ffffffffffffffffffffffffffffffffffffffff1602179055506040820151816002015560608201518160030160006101000a81548173ffffffffffffffffffffffffffffffffffffffff021916908373ffffffffffffffffffffffffffffffffffffffff16021790555060808201518160040155905050610dfd565b6040517f08c379a0000000000000000000000000000000000000000000000000000000008152600401610df490612fda565b60405180910390fd5b82600260008673ffffffffffffffffffffffffffffffffffffffff1673ffffffffffffffffffffffffffffffffffffffff16815260200190815260200160002060003373ffffffffffffffffffffffffffffffffffffffff1673ffffffffffffffffffffffffffffffffffffffff1681526020019081526020016000206000828254610e899190612da7565b925050819055507f2ed7d0e4d9ec7aee8dcf07fb316ebf744f01bea63f418d6b4e77f16f08b873c46009543386868686604051610ecb96959493929190612ffa565b60405180910390a160096000815480929190610ee690612e6f565b919050555050505050565b610ef9612687565b610f036000612705565b565b6000600660008381526020019081526020016000206040518060a00160405290816000820160009054906101000a900473ffffffffffffffffffffffffffffffffffffffff1673ffffffffffffffffffffffffffffffffffffffff1673ffffffffffffffffffffffffffffffffffffffff1681526020016001820160009054906101000a900473ffffffffffffffffffffffffffffffffffffffff1673ffffffffffffffffffffffffffffffffffffffff1673ffffffffffffffffffffffffffffffffffffffff168152602001600282015481526020016003820160009054906101000a900473ffffffffffffffffffffffffffffffffffffffff1673ffffffffffffffffffffffffffffffffffffffff1673ffffffffffffffffffffffffffffffffffffffff16815260200160048201548152505090503373ffffffffffffffffffffffffffffffffffffffff1660036000836060015173ffffffffffffffffffffffffffffffffffffffff1673ffffffffffffffffffffffffffffffffffffffff16815260200190815260200160002060008360800151815260200190815260200160002060009054906101000a900473ffffffffffffffffffffffffffffffffffffffff1673ffffffffffffffffffffffffffffffffffffffff1614611123576040517f08c379a000000000000000000000000000000000000000000000000000000000815260040161111a906130cd565b60405180910390fd5b3073ffffffffffffffffffffffffffffffffffffffff16816060015173ffffffffffffffffffffffffffffffffffffffff16636352211e83608001516040518263ffffffff1660e01b815260040161117b91906128f9565b602060405180830381865afa158015611198573d6000803e3d6000fd5b505050506040513d601f19601f820116820180604052508101906111bc9190613102565b73ffffffffffffffffffffffffffffffffffffffff1614611212576040517f08c379a00000000000000000000000000000000000000000000000000000000081526004016112099061317b565b60405180910390fd5b806060015173ffffffffffffffffffffffffffffffffffffffff166323b872dd33836000015184608001516040518463ffffffff1660e01b815260040161125b93929190612e0f565b600060405180830381600087803b15801561127557600080fd5b505af1158015611289573d6000803e3d6000fd5b505050508060400151816020015173ffffffffffffffffffffffffffffffffffffffff166370a08231306040518263ffffffff1660e01b81526004016112cf9190612afa565b602060405180830381865afa1580156112ec573d6000803e3d6000fd5b505050506040513d601f19601f820116820180604052508101906113109190612f61565b1015611351576040517f08c379a00000000000000000000000000000000000000000000000000000000081526004016113489061320d565b60405180910390fd5b806020015173ffffffffffffffffffffffffffffffffffffffff1663a9059cbb3383604001516040518363ffffffff1660e01b815260040161139492919061322d565b6020604051808303816000875af11580156113b3573d6000803e3d6000fd5b505050506040513d601f19601f820116820180604052508101906113d7919061328e565b5060046000826000015173ffffffffffffffffffffffffffffffffffffffff1673ffffffffffffffffffffffffffffffffffffffff1681526020019081526020016000206000826060015173ffffffffffffffffffffffffffffffffffffffff1673ffffffffffffffffffffffffffffffffffffffff168152602001908152602001600020600081548092919061146d90612e6f565b9190505550600460003373ffffffffffffffffffffffffffffffffffffffff1673ffffffffffffffffffffffffffffffffffffffff1681526020019081526020016000206000826060015173ffffffffffffffffffffffffffffffffffffffff1673ffffffffffffffffffffffffffffffffffffffff168152602001908152602001600020600081548092919061150390612e46565b9190505550806000015160036000836060015173ffffffffffffffffffffffffffffffffffffffff1673ffffffffffffffffffffffffffffffffffffffff16815260200190815260200160002060008360800151815260200190815260200160002060006101000a81548173ffffffffffffffffffffffffffffffffffffffff021916908373ffffffffffffffffffffffffffffffffffffffff16021790555060066000838152602001908152602001600020600080820160006101000a81549073ffffffffffffffffffffffffffffffffffffffff02191690556001820160006101000a81549073ffffffffffffffffffffffffffffffffffffffff021916905560028201600090556003820160006101000a81549073ffffffffffffffffffffffffffffffffffffffff0219169055600482016000905550507f870d7dcf5009bc9b7f09140390f3f2a1aca393fec6fde38cd6b72e37ae72e43d823360405161166f929190612eb7565b60405180910390a15050565b60056020528060005260406000206000915090508060000160009054906101000a900473ffffffffffffffffffffffffffffffffffffffff16908060010154908060020180546116ca90612c6f565b80601f01602080910402602001604051908101604052809291908181526020018280546116f690612c6f565b80156117435780601f1061171857610100808354040283529160200191611743565b820191906000526020600020905b81548152906001019060200180831161172657829003601f168201915b5050505050908060030154908060040160009054906101000a900473ffffffffffffffffffffffffffffffffffffffff16905085565b60008060009054906101000a900473ffffffffffffffffffffffffffffffffffffffff16905090565b60036020528160005260406000206020528060005260406000206000915091509054906101000a900473ffffffffffffffffffffffffffffffffffffffff1681565b60008111611827576040517f08c379a000000000000000000000000000000000000000000000000000000000815260040161181e9061332d565b60405180910390fd5b8173ffffffffffffffffffffffffffffffffffffffff166323b872dd3330670de0b6b3a764000085611859919061334d565b6040518463ffffffff1660e01b815260040161187793929190612e0f565b6020604051808303816000875af1158015611896573d6000803e3d6000fd5b505050506040513d601f19601f820116820180604052508101906118ba919061328e565b50670de0b6b3a7640000816118cf919061334d565b600260008473ffffffffffffffffffffffffffffffffffffffff1673ffffffffffffffffffffffffffffffffffffffff16815260200190815260200160002060003373ffffffffffffffffffffffffffffffffffffffff1673ffffffffffffffffffffffffffffffffffffffff168152602001908152602001600020600082825461195a9190612ddb565b925050819055505050565b8173ffffffffffffffffffffffffffffffffffffffff166323b872dd3330846040518463ffffffff1660e01b81526004016119a293929190612e0f565b600060405180830381600087803b1580156119bc57600080fd5b505af11580156119d0573d6000803e3d6000fd5b5050505033600360008473ffffffffffffffffffffffffffffffffffffffff1673ffffffffffffffffffffffffffffffffffffffff168152602001908152602001600020600083815260200190815260200160002060006101000a81548173ffffffffffffffffffffffffffffffffffffffff021916908373ffffffffffffffffffffffffffffffffffffffff160217905550600460003373ffffffffffffffffffffffffffffffffffffffff1673ffffffffffffffffffffffffffffffffffffffff16815260200190815260200160002060008373ffffffffffffffffffffffffffffffffffffffff1673ffffffffffffffffffffffffffffffffffffffff1681526020019081526020016000206000815480929190611af090612e6f565b91905055505050565b80600260008473ffffffffffffffffffffffffffffffffffffffff1673ffffffffffffffffffffffffffffffffffffffff16815260200190815260200160002060003373ffffffffffffffffffffffffffffffffffffffff1673ffffffffffffffffffffffffffffffffffffffff168152602001908152602001600020541015611bb8576040517f08c379a0000000000000000000000000000000000000000000000000000000008152600401611baf906133db565b60405180910390fd5b80600260008473ffffffffffffffffffffffffffffffffffffffff1673ffffffffffffffffffffffffffffffffffffffff16815260200190815260200160002060003373ffffffffffffffffffffffffffffffffffffffff1673ffffffffffffffffffffffffffffffffffffffff1681526020019081526020016000206000828254611c449190612da7565b925050819055508173ffffffffffffffffffffffffffffffffffffffff1663a9059cbb33836040518363ffffffff1660e01b8152600401611c8692919061322d565b6020604051808303816000875af1158015611ca5573d6000803e3d6000fd5b505050506040513d601f19601f82011682018060405250810190611cc9919061328e565b611d08576040517f08c379a0000000000000000000000000000000000000000000000000000000008152600401611cff90613447565b60405180910390fd5b5050565b60008111611d4f576040517f08c379a0000000000000000000000000000000000000000000000000000000008152600401611d46906134b3565b60405180910390fd5b3073ffffffffffffffffffffffffffffffffffffffff168373ffffffffffffffffffffffffffffffffffffffff16636352211e846040518263ffffffff1660e01b8152600401611d9f91906128f9565b602060405180830381865afa158015611dbc573d6000803e3d6000fd5b505050506040513d601f19601f82011682018060405250810190611de09190613102565b73ffffffffffffffffffffffffffffffffffffffff1603611ede573373ffffffffffffffffffffffffffffffffffffffff16600360008573ffffffffffffffffffffffffffffffffffffffff1673ffffffffffffffffffffffffffffffffffffffff168152602001908152602001600020600084815260200190815260200160002060009054906101000a900473ffffffffffffffffffffffffffffffffffffffff1673ffffffffffffffffffffffffffffffffffffffff1614611ed9576040517f08c379a0000000000000000000000000000000000000000000000000000000008152600401611ed09061351f565b60405180910390fd5b611f4e565b8273ffffffffffffffffffffffffffffffffffffffff166323b872dd3330856040518463ffffffff1660e01b8152600401611f1b93929190612e0f565b600060405180830381600087803b158015611f3557600080fd5b505af1158015611f49573d6000803e3d6000fd5b505050505b60008373ffffffffffffffffffffffffffffffffffffffff1663c87b56dd846040518263ffffffff1660e01b8152600401611f8991906128f9565b600060405180830381865afa158015611fa6573d6000803e3d6000fd5b505050506040513d6000823e3d601f19601f82011682018060405250810190611fcf9190613665565b90506040518060a001604052808573ffffffffffffffffffffffffffffffffffffffff1681526020018481526020018281526020018381526020013373ffffffffffffffffffffffffffffffffffffffff1681525060056000600854815260200190815260200160002060008201518160000160006101000a81548173ffffffffffffffffffffffffffffffffffffffff021916908373ffffffffffffffffffffffffffffffffffffffff16021790555060208201518160010155604082015181600201908161209f919061385a565b506060820151816003015560808201518160040160006101000a81548173ffffffffffffffffffffffffffffffffffffffff021916908373ffffffffffffffffffffffffffffffffffffffff1602179055509050507f469567faf6991a822eda80c58b2b36f2d4b356d961019cd6cff8e899a13f34076008543386868660405161212d95949392919061392c565b60405180910390a150505050565b60076020528060005260406000206000915090508060000154908060010160009054906101000a900473ffffffffffffffffffffffffffffffffffffffff16908060020160009054906101000a900473ffffffffffffffffffffffffffffffffffffffff16908060030154905084565b6002602052816000526040600020602052806000526040600020600091509150505481565b60066020528060005260406000206000915090508060000160009054906101000a900473ffffffffffffffffffffffffffffffffffffffff16908060010160009054906101000a900473ffffffffffffffffffffffffffffffffffffffff16908060020154908060030160009054906101000a900473ffffffffffffffffffffffffffffffffffffffff16908060040154905085565b80600160003373ffffffffffffffffffffffffffffffffffffffff1673ffffffffffffffffffffffffffffffffffffffff1681526020019081526020016000205410156122e8576040517f08c379a00000000000000000000000000000000000000000000000000000000081526004016122df90612d58565b60405180910390fd5b80600160003373ffffffffffffffffffffffffffffffffffffffff1673ffffffffffffffffffffffffffffffffffffffff16815260200190815260200160002060008282546123379190612da7565b925050819055503373ffffffffffffffffffffffffffffffffffffffff166108fc829081150290604051600060405180830381858888f19350505050158015612384573d6000803e3d6000fd5b5050565b612390612687565b600073ffffffffffffffffffffffffffffffffffffffff168173ffffffffffffffffffffffffffffffffffffffff16036123ff576040517f08c379a00000000000000000000000000000000000000000000000000000000081526004016123f6906139f1565b60405180910390fd5b61240881612705565b50565b3373ffffffffffffffffffffffffffffffffffffffff16600360008473ffffffffffffffffffffffffffffffffffffffff1673ffffffffffffffffffffffffffffffffffffffff168152602001908152602001600020600083815260200190815260200160002060009054906101000a900473ffffffffffffffffffffffffffffffffffffffff1673ffffffffffffffffffffffffffffffffffffffff16146124e9576040517f08c379a00000000000000000000000000000000000000000000000000000000081526004016124e090613a83565b60405180910390fd5b6000600360008473ffffffffffffffffffffffffffffffffffffffff1673ffffffffffffffffffffffffffffffffffffffff168152602001908152602001600020600083815260200190815260200160002060006101000a81548173ffffffffffffffffffffffffffffffffffffffff021916908373ffffffffffffffffffffffffffffffffffffffff1602179055508173ffffffffffffffffffffffffffffffffffffffff166323b872dd3033846040518463ffffffff1660e01b81526004016125b693929190612e0f565b600060405180830381600087803b1580156125d057600080fd5b505af11580156125e4573d6000803e3d6000fd5b505050505050565b6000341161262f576040517f08c379a00000000000000000000000000000000000000000000000000000000081526004016126269061332d565b60405180910390fd5b34600160003373ffffffffffffffffffffffffffffffffffffffff1673ffffffffffffffffffffffffffffffffffffffff168152602001908152602001600020600082825461267e9190612ddb565b92505081905550565b61268f6127c9565b73ffffffffffffffffffffffffffffffffffffffff166126ad611779565b73ffffffffffffffffffffffffffffffffffffffff1614612703576040517f08c379a00000000000000000000000000000000000000000000000000000000081526004016126fa90613aef565b60405180910390fd5b565b60008060009054906101000a900473ffffffffffffffffffffffffffffffffffffffff169050816000806101000a81548173ffffffffffffffffffffffffffffffffffffffff021916908373ffffffffffffffffffffffffffffffffffffffff1602179055508173ffffffffffffffffffffffffffffffffffffffff168173ffffffffffffffffffffffffffffffffffffffff167f8be0079c531659141344cd1fd0a4f28419497f9722a3daafe3b4186f6b6457e060405160405180910390a35050565b600033905090565b5080546127dd90612c6f565b6000825580601f106127ef575061280e565b601f01602090049060005260206000209081019061280d9190612811565b5b50565b5b8082111561282a576000816000905550600101612812565b5090565b6000604051905090565b600080fd5b600080fd5b600073ffffffffffffffffffffffffffffffffffffffff82169050919050565b600061286d82612842565b9050919050565b61287d81612862565b811461288857600080fd5b50565b60008135905061289a81612874565b92915050565b600080604083850312156128b7576128b6612838565b5b60006128c58582860161288b565b92505060206128d68582860161288b565b9150509250929050565b6000819050919050565b6128f3816128e0565b82525050565b600060208201905061290e60008301846128ea565b92915050565b60006020828403121561292a57612929612838565b5b60006129388482850161288b565b91505092915050565b61294a816128e0565b811461295557600080fd5b50565b60008135905061296781612941565b92915050565b60006020828403121561298357612982612838565b5b600061299184828501612958565b91505092915050565b600080600080608085870312156129b4576129b3612838565b5b60006129c28782880161288b565b94505060206129d387828801612958565b93505060406129e48782880161288b565b92505060606129f587828801612958565b91505092959194509250565b612a0a81612862565b82525050565b600081519050919050565b600082825260208201905092915050565b60005b83811015612a4a578082015181840152602081019050612a2f565b60008484015250505050565b6000601f19601f8301169050919050565b6000612a7282612a10565b612a7c8185612a1b565b9350612a8c818560208601612a2c565b612a9581612a56565b840191505092915050565b600060a082019050612ab56000830188612a01565b612ac260208301876128ea565b8181036040830152612ad48186612a67565b9050612ae360608301856128ea565b612af06080830184612a01565b9695505050505050565b6000602082019050612b0f6000830184612a01565b92915050565b60008060408385031215612b2c57612b2b612838565b5b6000612b3a8582860161288b565b9250506020612b4b85828601612958565b9150509250929050565b600080600060608486031215612b6e57612b6d612838565b5b6000612b7c8682870161288b565b9350506020612b8d86828701612958565b9250506040612b9e86828701612958565b9150509250925092565b6000608082019050612bbd60008301876128ea565b612bca6020830186612a01565b612bd76040830185612a01565b612be460608301846128ea565b95945050505050565b600060a082019050612c026000830188612a01565b612c0f6020830187612a01565b612c1c60408301866128ea565b612c296060830185612a01565b612c3660808301846128ea565b9695505050505050565b7f4e487b7100000000000000000000000000000000000000000000000000000000600052602260045260246000fd5b60006002820490506001821680612c8757607f821691505b602082108103612c9a57612c99612c40565b5b50919050565b7f4e4654206e6f7420666f756e6400000000000000000000000000000000000000600082015250565b6000612cd6600d83612a1b565b9150612ce182612ca0565b602082019050919050565b60006020820190508181036000830152612d0581612cc9565b9050919050565b7f496e73756666696369656e74204554482062616c616e63650000000000000000600082015250565b6000612d42601883612a1b565b9150612d4d82612d0c565b602082019050919050565b60006020820190508181036000830152612d7181612d35565b9050919050565b7f4e487b7100000000000000000000000000000000000000000000000000000000600052601160045260246000fd5b6000612db2826128e0565b9150612dbd836128e0565b9250828203905081811115612dd557612dd4612d78565b5b92915050565b6000612de6826128e0565b9150612df1836128e0565b9250828201905080821115612e0957612e08612d78565b5b92915050565b6000606082019050612e246000830186612a01565b612e316020830185612a01565b612e3e60408301846128ea565b949350505050565b6000612e51826128e0565b915060008203612e6457612e63612d78565b5b600182039050919050565b6000612e7a826128e0565b91507fffffffffffffffffffffffffffffffffffffffffffffffffffffffffffffffff8203612eac57612eab612d78565b5b600182019050919050565b6000604082019050612ecc60008301856128ea565b612ed96020830184612a01565b9392505050565b7f416d6f756e74206d7573742062652067726561746572207468616e207a65726f600082015250565b6000612f16602083612a1b565b9150612f2182612ee0565b602082019050919050565b60006020820190508181036000830152612f4581612f09565b9050919050565b600081519050612f5b81612941565b92915050565b600060208284031215612f7757612f76612838565b5b6000612f8584828501612f4c565b91505092915050565b7f536f6d657468696e672077656e742077726f6e6720696e206c696e6520313439600082015250565b6000612fc4602083612a1b565b9150612fcf82612f8e565b602082019050919050565b60006020820190508181036000830152612ff381612fb7565b9050919050565b600060c08201905061300f60008301896128ea565b61301c6020830188612a01565b6130296040830187612a01565b61303660608301866128ea565b6130436080830185612a01565b61305060a08301846128ea565b979650505050505050565b7f427579657220646f6573206e6f74206f776e207468652072657175697265642060008201527f4e46540000000000000000000000000000000000000000000000000000000000602082015250565b60006130b7602383612a1b565b91506130c28261305b565b604082019050919050565b600060208201905081810360008301526130e6816130aa565b9050919050565b6000815190506130fc81612874565b92915050565b60006020828403121561311857613117612838565b5b6000613126848285016130ed565b91505092915050565b7f436f6e747261637420646f6573206e6f74206f776e20746865204e4654000000600082015250565b6000613165601d83612a1b565b91506131708261312f565b602082019050919050565b6000602082019050818103600083015261319481613158565b9050919050565b7f436f6e747261637420646f6573206e6f74206861766520656e6f75676820746f60008201527f6b656e7300000000000000000000000000000000000000000000000000000000602082015250565b60006131f7602483612a1b565b91506132028261319b565b604082019050919050565b60006020820190508181036000830152613226816131ea565b9050919050565b60006040820190506132426000830185612a01565b61324f60208301846128ea565b9392505050565b60008115159050919050565b61326b81613256565b811461327657600080fd5b50565b60008151905061328881613262565b92915050565b6000602082840312156132a4576132a3612838565b5b60006132b284828501613279565b91505092915050565b7f4465706f73697420616d6f756e74206d7573742062652067726561746572207460008201527f68616e207a65726f000000000000000000000000000000000000000000000000602082015250565b6000613317602883612a1b565b9150613322826132bb565b604082019050919050565b600060208201905081810360008301526133468161330a565b9050919050565b6000613358826128e0565b9150613363836128e0565b9250828202613371816128e0565b9150828204841483151761338857613387612d78565b5b5092915050565b7f496e73756666696369656e7420746f6b656e2062616c616e6365000000000000600082015250565b60006133c5601a83612a1b565b91506133d08261338f565b602082019050919050565b600060208201905081810360008301526133f4816133b8565b9050919050565b7f546f6b656e207472616e73666572206661696c65640000000000000000000000600082015250565b6000613431601583612a1b565b915061343c826133fb565b602082019050919050565b6000602082019050818103600083015261346081613424565b9050919050565b7f5072696365206d7573742062652067726561746572207468616e207a65726f00600082015250565b600061349d601f83612a1b565b91506134a882613467565b602082019050919050565b600060208201905081810360008301526134cc81613490565b9050919050565b7f596f7520617265206e6f7420746865206465706f7369746f7200000000000000600082015250565b6000613509601983612a1b565b9150613514826134d3565b602082019050919050565b60006020820190508181036000830152613538816134fc565b9050919050565b600080fd5b600080fd5b7f4e487b7100000000000000000000000000000000000000000000000000000000600052604160045260246000fd5b61358182612a56565b810181811067ffffffffffffffff821117156135a05761359f613549565b5b80604052505050565b60006135b361282e565b90506135bf8282613578565b919050565b600067ffffffffffffffff8211156135df576135de613549565b5b6135e882612a56565b9050602081019050919050565b6000613608613603846135c4565b6135a9565b90508281526020810184848401111561362457613623613544565b5b61362f848285612a2c565b509392505050565b600082601f83011261364c5761364b61353f565b5b815161365c8482602086016135f5565b91505092915050565b60006020828403121561367b5761367a612838565b5b600082015167ffffffffffffffff8111156136995761369861283d565b5b6136a584828501613637565b91505092915050565b60008190508160005260206000209050919050565b60006020601f8301049050919050565b600082821b905092915050565b6000600883026137107fffffffffffffffffffffffffffffffffffffffffffffffffffffffffffffffff826136d3565b61371a86836136d3565b95508019841693508086168417925050509392505050565b6000819050919050565b600061375761375261374d846128e0565b613732565b6128e0565b9050919050565b6000819050919050565b6137718361373c565b61378561377d8261375e565b8484546136e0565b825550505050565b600090565b61379a61378d565b6137a5818484613768565b505050565b5b818110156137c9576137be600082613792565b6001810190506137ab565b5050565b601f82111561380e576137df816136ae565b6137e8846136c3565b810160208510156137f7578190505b61380b613803856136c3565b8301826137aa565b50505b505050565b600082821c905092915050565b600061383160001984600802613813565b1980831691505092915050565b600061384a8383613820565b9150826002028217905092915050565b61386382612a10565b67ffffffffffffffff81111561387c5761387b613549565b5b6138868254612c6f565b6138918282856137cd565b600060209050601f8311600181146138c457600084156138b2578287015190505b6138bc858261383e565b865550613924565b601f1984166138d2866136ae565b60005b828110156138fa578489015182556001820191506020850194506020810190506138d5565b868310156139175784890151613913601f891682613820565b8355505b6001600288020188555050505b505050505050565b600060a08201905061394160008301886128ea565b61394e6020830187612a01565b61395b6040830186612a01565b61396860608301856128ea565b61397560808301846128ea565b9695505050505050565b7f4f776e61626c653a206e6577206f776e657220697320746865207a65726f206160008201527f6464726573730000000000000000000000000000000000000000000000000000602082015250565b60006139db602683612a1b565b91506139e68261397f565b604082019050919050565b60006020820190508181036000830152613a0a816139ce565b9050919050565b7f596f7520617265206e6f7420746865206f776e6572206f662074686973204e4660008201527f5400000000000000000000000000000000000000000000000000000000000000602082015250565b6000613a6d602183612a1b565b9150613a7882613a11565b604082019050919050565b60006020820190508181036000830152613a9c81613a60565b9050919050565b7f4f776e61626c653a2063616c6c6572206973206e6f7420746865206f776e6572600082015250565b6000613ad9602083612a1b565b9150613ae482613aa3565b602082019050919050565b60006020820190508181036000830152613b0881613acc565b905091905056fea2646970667358221220b2c88bf2cbf8cc56702ac94230618f6738ceedc7e4e4fefe8dea5130169b5d3064736f6c63430008130033",
  "immutableReferences": {},
  "source": "// SPDX-License-Identifier: MIT\r\n\r\npragma solidity ^0.8.19;\r\n\r\nimport \"@openzeppelin/contracts/token/ERC20/IERC20.sol\";\r\nimport \"@openzeppelin/contracts/token/ERC721/IERC721.sol\";\r\nimport \"@openzeppelin/contracts/access/Ownable.sol\";\r\nimport \"@openzeppelin/contracts/token/ERC721/extensions/IERC721Metadata.sol\";\r\n\r\ncontract AssertExchange is Ownable {\r\n    // Lu tr s d ca ngi dng\r\n    mapping(address => uint256) public balanceETH;\r\n    mapping(address => mapping(address => uint256)) public balance20; // userAddress => (token => balance) user's  approved for contract\r\n    mapping(address => mapping(uint256 => address)) public balance721; // tokenAddress => (tokenId => ownership)\r\n    mapping(address => mapping(address => uint256)) public userNFTCount; // Lu s lng NFT ca mi user theo tng token\r\n\r\n    // Basket structures\r\n    struct BasketNFTForETH {\r\n        address tokenAddress;\r\n        uint256 tokenId;\r\n        string tokenURI;\r\n        uint256 price; //\r\n        address seller;\r\n    }\r\n\r\n    struct BasketPotatoForNFT {\r\n        address seller;\r\n        address tokenAddress;\r\n        uint256 amount;\r\n        address nftAddress;\r\n        uint256 tokenId;\r\n    }\r\n\r\n    struct BasketETHForPotato {\r\n        uint256 amountETH;\r\n        address seller;\r\n        address tokenAddress;\r\n        uint256 tokenAmount;\r\n    }\r\n\r\n    mapping(uint256 => BasketNFTForETH) public basketNFTForETH;\r\n    mapping(uint256 => BasketPotatoForNFT) public basketPotatoForNFT;\r\n    mapping(uint256 => BasketETHForPotato) public basketETHForPotato;\r\n\r\n    uint256 private nftCounter;\r\n    uint256 private potatoCounter;\r\n    uint256 private ethToPotatoCounter;\r\n\r\n    event NFTForEthListed(\r\n        uint256 id,\r\n        address seller,\r\n        address tokenAddress,\r\n        uint256 tokenId,\r\n        uint256 price\r\n    );\r\n    event PotatoForNFTListed(\r\n        uint256 id,\r\n        address seller,\r\n        address tokenAddress,\r\n        uint256 amount,\r\n        address nftAddress,\r\n        uint256 tokenId\r\n    );\r\n    event ETHForPotatoListed(\r\n        uint256 id,\r\n        address seller,\r\n        uint256 amount,\r\n        address tokenAddress,\r\n        uint256 price\r\n    );\r\n    event NFTPurchased(uint256 id, address buyer);\r\n    event PotatoForNFTPurchased(uint256 id, address buyer);\r\n    event ETHForTokenPurchased(uint256 id, address buyer);\r\n\r\n    function depositETH() external payable {\r\n        require(msg.value > 0, \"Deposit amount must be greater than zero\");\r\n        balanceETH[msg.sender] += msg.value;\r\n    }\r\n\r\n    function depositPotato(address tokenAddress, uint256 amount) external {\r\n        require(amount > 0, \"Deposit amount must be greater than zero\");\r\n        IERC20(tokenAddress).transferFrom(\r\n            msg.sender,\r\n            address(this),\r\n            amount * 10 ** 18\r\n        );\r\n        balance20[tokenAddress][msg.sender] += amount * 10 ** 18;\r\n    }\r\n\r\n    function depositNFT(address tokenAddress, uint256 tokenId) external {\r\n        IERC721(tokenAddress).transferFrom(msg.sender, address(this), tokenId);\r\n        balance721[tokenAddress][tokenId] = msg.sender; // Lu quyn s hu\r\n        userNFTCount[msg.sender][tokenAddress]++; // Tng s lng NFT ca user cho tokenAddress\r\n    }\r\n\r\n    function listNFTForETH(\r\n        address tokenAddress,\r\n        uint256 tokenId,\r\n        uint256 price\r\n    ) external {\r\n        require(price > 0, \"Price must be greater than zero\");\r\n\r\n        // Kim tra nu NFT  c deposit trc \r\n        if (IERC721(tokenAddress).ownerOf(tokenId) == address(this)) {\r\n            // Nu NFT  c deposit, m bo ngi gi l ch s hu ban u\r\n            require(\r\n                balance721[tokenAddress][tokenId] == msg.sender,\r\n                \"You are not the depositor\"\r\n            );\r\n        } else {\r\n            // Nu NFT cha deposit, chuyn vo smart contract\r\n            IERC721(tokenAddress).transferFrom(\r\n                msg.sender,\r\n                address(this),\r\n                tokenId\r\n            );\r\n        }\r\n\r\n        // Ly tokenURI\r\n        string memory tokenURI = IERC721Metadata(tokenAddress).tokenURI(\r\n            tokenId\r\n        );\r\n\r\n        // Thm vo danh sch nim yt\r\n        basketNFTForETH[nftCounter] = BasketNFTForETH({\r\n            tokenAddress: tokenAddress,\r\n            tokenId: tokenId,\r\n            tokenURI: tokenURI,\r\n            price: price,\r\n            seller: msg.sender\r\n        });\r\n\r\n        emit NFTForEthListed(\r\n            nftCounter,\r\n            msg.sender,\r\n            tokenAddress,\r\n            tokenId,\r\n            price\r\n        );\r\n    }\r\n\r\n    function listPotatoForNFT(\r\n        address tokenAddress,\r\n        uint256 amount,\r\n        address nftAddress,\r\n        uint256 tokenId\r\n    ) external {\r\n        require(amount > 0, \"Amount must be greater than zero\");\r\n\r\n        if (\r\n            IERC20(tokenAddress).balanceOf(address(this)) >= amount ||\r\n            balance20[tokenAddress][msg.sender] >= amount\r\n        ) {\r\n            basketPotatoForNFT[potatoCounter] = BasketPotatoForNFT({\r\n                seller: msg.sender,\r\n                tokenAddress: tokenAddress,\r\n                amount: amount,\r\n                nftAddress: nftAddress,\r\n                tokenId: tokenId\r\n            });\r\n        } else {\r\n            revert(\"Something went wrong in line 149\");\r\n        }\r\n\r\n        balance20[tokenAddress][msg.sender] -= amount;\r\n\r\n        emit PotatoForNFTListed(\r\n            potatoCounter,\r\n            msg.sender,\r\n            tokenAddress,\r\n            amount,\r\n            nftAddress,\r\n            tokenId\r\n        );\r\n        potatoCounter++;\r\n    }\r\n\r\n    // function listETHForPotato(\r\n    //     uint256 amountETH,\r\n    //     address potatoAddress,\r\n    //     uint256 potatoAmount\r\n    // ) external payable {\r\n    //     require(potatoAmount > 0, \"Token amount must be greater than zero\");\r\n\r\n    //     basketETHForPotato[ethToPotatoCounter] = BasketETHForPotato({\r\n    //         amountETH: amountETH,\r\n    //         seller: msg.sender,\r\n    //         tokenAddress: potatoAddress,\r\n    //         tokenAmount: potatoAmount\r\n    //     });\r\n\r\n    //     emit ETHForPotatoListed(\r\n    //         ethToPotatoCounter,\r\n    //         msg.sender,\r\n    //         amountETH,\r\n    //         potatoAddress,\r\n    //         potatoAmount\r\n    //     );\r\n    //     ethToPotatoCounter++;\r\n    // }\r\n\r\n    function buyNFT(uint256 id) external payable {\r\n        BasketNFTForETH memory item = basketNFTForETH[id];\r\n        require(item.tokenAddress != address(0), \"NFT not found\");\r\n        require(\r\n            balanceETH[msg.sender] >= item.price,\r\n            \"Insufficient ETH balance\"\r\n        );\r\n\r\n        balanceETH[msg.sender] -= item.price;\r\n        balanceETH[item.seller] += item.price;\r\n        IERC721(item.tokenAddress).transferFrom(\r\n            address(this),\r\n            msg.sender,\r\n            item.tokenId\r\n        );\r\n\r\n        // Cp nht s lng NFT ca ngi mua v ngi bn\r\n        userNFTCount[item.seller][item.tokenAddress]--;\r\n        userNFTCount[msg.sender][item.tokenAddress]++;\r\n        balance721[item.tokenAddress][item.tokenId] = msg.sender;\r\n\r\n        delete basketNFTForETH[id];\r\n\r\n        emit NFTPurchased(id, msg.sender);\r\n    }\r\n\r\n    function buyPotatoByNFT(uint256 id) external payable {\r\n        BasketPotatoForNFT memory item = basketPotatoForNFT[id];\r\n\r\n        require(\r\n            balance721[item.nftAddress][item.tokenId] == msg.sender,\r\n            \"Buyer does not own the required NFT\"\r\n        );\r\n\r\n        require(\r\n            IERC721(item.nftAddress).ownerOf(item.tokenId) == address(this),\r\n            \"Contract does not own the NFT\"\r\n        );\r\n\r\n        IERC721(item.nftAddress).transferFrom(\r\n            msg.sender,\r\n            item.seller,\r\n            item.tokenId\r\n        );\r\n\r\n        require(\r\n            IERC20(item.tokenAddress).balanceOf(address(this)) >= item.amount,\r\n            \"Contract does not have enough tokens\"\r\n        );\r\n\r\n        IERC20(item.tokenAddress).transfer(msg.sender, item.amount);\r\n\r\n        userNFTCount[item.seller][item.nftAddress]++;\r\n        userNFTCount[msg.sender][item.nftAddress]--;\r\n        balance721[item.nftAddress][item.tokenId] = item.seller;\r\n\r\n        delete basketPotatoForNFT[id];\r\n\r\n        emit PotatoForNFTPurchased(id, msg.sender);\r\n    }\r\n\r\n    // function buyETHByPotato(uint256 id) external payable {\r\n    //     BasketETHForPotato memory item = basketETHForPotato[id];\r\n    //     require(item.tokenAddress != address(0), \"Item not found\");\r\n    //     IERC20(item.tokenAddress).transferFrom(\r\n    //         msg.sender,\r\n    //         item.seller,\r\n    //         item.tokenAmount\r\n    //     );\r\n    //     payable(msg.sender).transfer(msg.value);\r\n    //     delete basketETHForPotato[id];\r\n    //     emit ETHForTokenPurchased(id, msg.sender);\r\n    // }\r\n\r\n    function withdrawETH(uint256 amount) external {\r\n        require(balanceETH[msg.sender] >= amount, \"Insufficient ETH balance\");\r\n        balanceETH[msg.sender] -= amount;\r\n        payable(msg.sender).transfer(amount);\r\n    }\r\n\r\n    function withdrawERC20(address tokenAddress, uint256 amount) external {\r\n        require(\r\n            balance20[tokenAddress][msg.sender] >= amount,\r\n            \"Insufficient token balance\"\r\n        );\r\n        balance20[tokenAddress][msg.sender] -= amount;\r\n        require(\r\n            IERC20(tokenAddress).transfer(msg.sender, amount),\r\n            \"Token transfer failed\"\r\n        );\r\n    }\r\n\r\n    function withdrawERC721(address tokenAddress, uint256 tokenId) external {\r\n        require(\r\n            balance721[tokenAddress][tokenId] == msg.sender,\r\n            \"You are not the owner of this NFT\"\r\n        );\r\n\r\n        // Xa thng tin ownership trong mapping trc khi tr NFT li\r\n        balance721[tokenAddress][tokenId] = address(0);\r\n\r\n        IERC721(tokenAddress).transferFrom(address(this), msg.sender, tokenId);\r\n    }\r\n}\r\n",
  "sourcePath": "D:\\Token_Market\\contracts\\AssertExchange.sol",
  "compiler": {
    "name": "solc",
    "version": "0.8.19+commit.7dd6d404.Emscripten.clang"
  },
  "schemaVersion": "3.4.16",
  "updatedAt": "2025-02-13T08:17:34.618Z",
  "devdoc": {
    "kind": "dev",
    "methods": {
      "owner()": {
        "details": "Returns the address of the current owner."
      },
      "renounceOwnership()": {
        "details": "Leaves the contract without owner. It will not be possible to call `onlyOwner` functions. Can only be called by the current owner. NOTE: Renouncing ownership will leave the contract without an owner, thereby disabling any functionality that is only available to the owner."
      },
      "transferOwnership(address)": {
        "details": "Transfers ownership of the contract to a new account (`newOwner`). Can only be called by the current owner."
      }
    },
    "version": 1
  },
  "userdoc": {
    "kind": "user",
    "methods": {},
    "version": 1
  }
}