{
  "contractName": "Token71",
  "abi": [
    {
      "inputs": [],
      "stateMutability": "nonpayable",
      "type": "constructor"
    },
    {
      "anonymous": false,
      "inputs": [
        {
          "indexed": true,
          "internalType": "address",
          "name": "owner",
          "type": "address"
        },
        {
          "indexed": true,
          "internalType": "address",
          "name": "approved",
          "type": "address"
        },
        {
          "indexed": true,
          "internalType": "uint256",
          "name": "tokenId",
          "type": "uint256"
        }
      ],
      "name": "Approval",
      "type": "event"
    },
    {
      "anonymous": false,
      "inputs": [
        {
          "indexed": true,
          "internalType": "address",
          "name": "owner",
          "type": "address"
        },
        {
          "indexed": true,
          "internalType": "address",
          "name": "operator",
          "type": "address"
        },
        {
          "indexed": false,
          "internalType": "bool",
          "name": "approved",
          "type": "bool"
        }
      ],
      "name": "ApprovalForAll",
      "type": "event"
    },
    {
      "anonymous": false,
      "inputs": [
        {
          "indexed": false,
          "internalType": "uint256",
          "name": "_fromTokenId",
          "type": "uint256"
        },
        {
          "indexed": false,
          "internalType": "uint256",
          "name": "_toTokenId",
          "type": "uint256"
        }
      ],
      "name": "BatchMetadataUpdate",
      "type": "event"
    },
    {
      "anonymous": false,
      "inputs": [
        {
          "indexed": false,
          "internalType": "uint256",
          "name": "_tokenId",
          "type": "uint256"
        }
      ],
      "name": "MetadataUpdate",
      "type": "event"
    },
    {
      "anonymous": false,
      "inputs": [
        {
          "indexed": true,
          "internalType": "address",
          "name": "previousOwner",
          "type": "address"
        },
        {
          "indexed": true,
          "internalType": "address",
          "name": "newOwner",
          "type": "address"
        }
      ],
      "name": "OwnershipTransferred",
      "type": "event"
    },
    {
      "anonymous": false,
      "inputs": [
        {
          "indexed": true,
          "internalType": "address",
          "name": "from",
          "type": "address"
        },
        {
          "indexed": true,
          "internalType": "address",
          "name": "to",
          "type": "address"
        },
        {
          "indexed": true,
          "internalType": "uint256",
          "name": "tokenId",
          "type": "uint256"
        }
      ],
      "name": "Transfer",
      "type": "event"
    },
    {
      "inputs": [],
      "name": "PRICE",
      "outputs": [
        {
          "internalType": "uint256",
          "name": "",
          "type": "uint256"
        }
      ],
      "stateMutability": "view",
      "type": "function",
      "constant": true
    },
    {
      "inputs": [
        {
          "internalType": "address",
          "name": "to",
          "type": "address"
        },
        {
          "internalType": "uint256",
          "name": "tokenId",
          "type": "uint256"
        }
      ],
      "name": "approve",
      "outputs": [],
      "stateMutability": "nonpayable",
      "type": "function"
    },
    {
      "inputs": [
        {
          "internalType": "address",
          "name": "owner",
          "type": "address"
        }
      ],
      "name": "balanceOf",
      "outputs": [
        {
          "internalType": "uint256",
          "name": "",
          "type": "uint256"
        }
      ],
      "stateMutability": "view",
      "type": "function",
      "constant": true
    },
    {
      "inputs": [
        {
          "internalType": "uint256",
          "name": "tokenId",
          "type": "uint256"
        }
      ],
      "name": "getApproved",
      "outputs": [
        {
          "internalType": "address",
          "name": "",
          "type": "address"
        }
      ],
      "stateMutability": "view",
      "type": "function",
      "constant": true
    },
    {
      "inputs": [
        {
          "internalType": "address",
          "name": "owner",
          "type": "address"
        },
        {
          "internalType": "address",
          "name": "operator",
          "type": "address"
        }
      ],
      "name": "isApprovedForAll",
      "outputs": [
        {
          "internalType": "bool",
          "name": "",
          "type": "bool"
        }
      ],
      "stateMutability": "view",
      "type": "function",
      "constant": true
    },
    {
      "inputs": [],
      "name": "name",
      "outputs": [
        {
          "internalType": "string",
          "name": "",
          "type": "string"
        }
      ],
      "stateMutability": "view",
      "type": "function",
      "constant": true
    },
    {
      "inputs": [],
      "name": "owner",
      "outputs": [
        {
          "internalType": "address",
          "name": "",
          "type": "address"
        }
      ],
      "stateMutability": "view",
      "type": "function",
      "constant": true
    },
    {
      "inputs": [
        {
          "internalType": "uint256",
          "name": "tokenId",
          "type": "uint256"
        }
      ],
      "name": "ownerOf",
      "outputs": [
        {
          "internalType": "address",
          "name": "",
          "type": "address"
        }
      ],
      "stateMutability": "view",
      "type": "function",
      "constant": true
    },
    {
      "inputs": [],
      "name": "renounceOwnership",
      "outputs": [],
      "stateMutability": "nonpayable",
      "type": "function"
    },
    {
      "inputs": [
        {
          "internalType": "address",
          "name": "from",
          "type": "address"
        },
        {
          "internalType": "address",
          "name": "to",
          "type": "address"
        },
        {
          "internalType": "uint256",
          "name": "tokenId",
          "type": "uint256"
        }
      ],
      "name": "safeTransferFrom",
      "outputs": [],
      "stateMutability": "nonpayable",
      "type": "function"
    },
    {
      "inputs": [
        {
          "internalType": "address",
          "name": "from",
          "type": "address"
        },
        {
          "internalType": "address",
          "name": "to",
          "type": "address"
        },
        {
          "internalType": "uint256",
          "name": "tokenId",
          "type": "uint256"
        },
        {
          "internalType": "bytes",
          "name": "data",
          "type": "bytes"
        }
      ],
      "name": "safeTransferFrom",
      "outputs": [],
      "stateMutability": "nonpayable",
      "type": "function"
    },
    {
      "inputs": [
        {
          "internalType": "address",
          "name": "operator",
          "type": "address"
        },
        {
          "internalType": "bool",
          "name": "approved",
          "type": "bool"
        }
      ],
      "name": "setApprovalForAll",
      "outputs": [],
      "stateMutability": "nonpayable",
      "type": "function"
    },
    {
      "inputs": [
        {
          "internalType": "bytes4",
          "name": "interfaceId",
          "type": "bytes4"
        }
      ],
      "name": "supportsInterface",
      "outputs": [
        {
          "internalType": "bool",
          "name": "",
          "type": "bool"
        }
      ],
      "stateMutability": "view",
      "type": "function",
      "constant": true
    },
    {
      "inputs": [],
      "name": "symbol",
      "outputs": [
        {
          "internalType": "string",
          "name": "",
          "type": "string"
        }
      ],
      "stateMutability": "view",
      "type": "function",
      "constant": true
    },
    {
      "inputs": [
        {
          "internalType": "uint256",
          "name": "tokenId",
          "type": "uint256"
        }
      ],
      "name": "tokenURI",
      "outputs": [
        {
          "internalType": "string",
          "name": "",
          "type": "string"
        }
      ],
      "stateMutability": "view",
      "type": "function",
      "constant": true
    },
    {
      "inputs": [
        {
          "internalType": "address",
          "name": "from",
          "type": "address"
        },
        {
          "internalType": "address",
          "name": "to",
          "type": "address"
        },
        {
          "internalType": "uint256",
          "name": "tokenId",
          "type": "uint256"
        }
      ],
      "name": "transferFrom",
      "outputs": [],
      "stateMutability": "nonpayable",
      "type": "function"
    },
    {
      "inputs": [
        {
          "internalType": "address",
          "name": "newOwner",
          "type": "address"
        }
      ],
      "name": "transferOwnership",
      "outputs": [],
      "stateMutability": "nonpayable",
      "type": "function"
    },
    {
      "inputs": [
        {
          "internalType": "string",
          "name": "tokenURI",
          "type": "string"
        }
      ],
      "name": "mintToken",
      "outputs": [],
      "stateMutability": "payable",
      "type": "function",
      "payable": true
    },
    {
      "inputs": [],
      "name": "getCurrentTokenId",
      "outputs": [
        {
          "internalType": "uint256",
          "name": "",
          "type": "uint256"
        }
      ],
      "stateMutability": "view",
      "type": "function",
      "constant": true
    }
  ],
  "bytecode": "0x60806040523480156200001157600080fd5b506040518060400160405280600781526020017f546f6b656e3731000000000000000000000000000000000000000000000000008152506040518060400160405280600381526020017f543731000000000000000000000000000000000000000000000000000000000081525081600090816200008f919062000412565b508060019081620000a1919062000412565b505050620000c4620000b8620000ca60201b60201c565b620000d260201b60201c565b620004f9565b600033905090565b6000600760009054906101000a900473ffffffffffffffffffffffffffffffffffffffff16905081600760006101000a81548173ffffffffffffffffffffffffffffffffffffffff021916908373ffffffffffffffffffffffffffffffffffffffff1602179055508173ffffffffffffffffffffffffffffffffffffffff168173ffffffffffffffffffffffffffffffffffffffff167f8be0079c531659141344cd1fd0a4f28419497f9722a3daafe3b4186f6b6457e060405160405180910390a35050565b600081519050919050565b7f4e487b7100000000000000000000000000000000000000000000000000000000600052604160045260246000fd5b7f4e487b7100000000000000000000000000000000000000000000000000000000600052602260045260246000fd5b600060028204905060018216806200021a57607f821691505b60208210810362000230576200022f620001d2565b5b50919050565b60008190508160005260206000209050919050565b60006020601f8301049050919050565b600082821b905092915050565b6000600883026200029a7fffffffffffffffffffffffffffffffffffffffffffffffffffffffffffffffff826200025b565b620002a686836200025b565b95508019841693508086168417925050509392505050565b6000819050919050565b6000819050919050565b6000620002f3620002ed620002e784620002be565b620002c8565b620002be565b9050919050565b6000819050919050565b6200030f83620002d2565b620003276200031e82620002fa565b84845462000268565b825550505050565b600090565b6200033e6200032f565b6200034b81848462000304565b505050565b5b8181101562000373576200036760008262000334565b60018101905062000351565b5050565b601f821115620003c2576200038c8162000236565b62000397846200024b565b81016020851015620003a7578190505b620003bf620003b6856200024b565b83018262000350565b50505b505050565b600082821c905092915050565b6000620003e760001984600802620003c7565b1980831691505092915050565b6000620004028383620003d4565b9150826002028217905092915050565b6200041d8262000198565b67ffffffffffffffff811115620004395762000438620001a3565b5b62000445825462000201565b6200045282828562000377565b600060209050601f8311600181146200048a576000841562000475578287015190505b620004818582620003f4565b865550620004f1565b601f1984166200049a8662000236565b60005b82811015620004c4578489015182556001820191506020850194506020810190506200049d565b86831015620004e45784890151620004e0601f891682620003d4565b8355505b6001600288020188555050505b505050505050565b61301b80620005096000396000f3fe6080604052600436106101145760003560e01c806370a08231116100a0578063a22cb46511610064578063a22cb46514610392578063b88d4fde146103bb578063c87b56dd146103e4578063e985e9c514610421578063f2fde38b1461045e57610114565b806370a08231146102bd578063715018a6146102fa5780638d859f3e146103115780638da5cb5b1461033c57806395d89b411461036757610114565b806323b872dd116100e757806323b872dd146101e757806333eba49a1461021057806342842e0e1461022c57806356189236146102555780636352211e1461028057610114565b806301ffc9a71461011957806306fdde0314610156578063081812fc14610181578063095ea7b3146101be575b600080fd5b34801561012557600080fd5b50610140600480360381019061013b9190611dbc565b610487565b60405161014d9190611e04565b60405180910390f35b34801561016257600080fd5b5061016b6104e8565b6040516101789190611eaf565b60405180910390f35b34801561018d57600080fd5b506101a860048036038101906101a39190611f07565b61057a565b6040516101b59190611f75565b60405180910390f35b3480156101ca57600080fd5b506101e560048036038101906101e09190611fbc565b6105c0565b005b3480156101f357600080fd5b5061020e60048036038101906102099190611ffc565b6106d7565b005b61022a60048036038101906102259190612184565b610737565b005b34801561023857600080fd5b50610253600480360381019061024e9190611ffc565b61076c565b005b34801561026157600080fd5b5061026a61078c565b60405161027791906121dc565b60405180910390f35b34801561028c57600080fd5b506102a760048036038101906102a29190611f07565b610796565b6040516102b49190611f75565b60405180910390f35b3480156102c957600080fd5b506102e460048036038101906102df91906121f7565b61081c565b6040516102f191906121dc565b60405180910390f35b34801561030657600080fd5b5061030f6108d3565b005b34801561031d57600080fd5b506103266108e7565b60405161033391906121dc565b60405180910390f35b34801561034857600080fd5b506103516108f3565b60405161035e9190611f75565b60405180910390f35b34801561037357600080fd5b5061037c61091d565b6040516103899190611eaf565b60405180910390f35b34801561039e57600080fd5b506103b960048036038101906103b49190612250565b6109af565b005b3480156103c757600080fd5b506103e260048036038101906103dd9190612331565b6109c5565b005b3480156103f057600080fd5b5061040b60048036038101906104069190611f07565b610a27565b6040516104189190611eaf565b60405180910390f35b34801561042d57600080fd5b50610448600480360381019061044391906123b4565b610b39565b6040516104559190611e04565b60405180910390f35b34801561046a57600080fd5b50610485600480360381019061048091906121f7565b610bcd565b005b6000634906490660e01b7bffffffffffffffffffffffffffffffffffffffffffffffffffffffff1916827bffffffffffffffffffffffffffffffffffffffffffffffffffffffff191614806104e157506104e082610c50565b5b9050919050565b6060600080546104f790612423565b80601f016020809104026020016040519081016040528092919081815260200182805461052390612423565b80156105705780601f1061054557610100808354040283529160200191610570565b820191906000526020600020905b81548152906001019060200180831161055357829003601f168201915b5050505050905090565b600061058582610d32565b6004600083815260200190815260200160002060009054906101000a900473ffffffffffffffffffffffffffffffffffffffff169050919050565b60006105cb82610796565b90508073ffffffffffffffffffffffffffffffffffffffff168373ffffffffffffffffffffffffffffffffffffffff160361063b576040517f08c379a0000000000000000000000000000000000000000000000000000000008152600401610632906124c6565b60405180910390fd5b8073ffffffffffffffffffffffffffffffffffffffff1661065a610d7d565b73ffffffffffffffffffffffffffffffffffffffff161480610689575061068881610683610d7d565b610b39565b5b6106c8576040517f08c379a00000000000000000000000000000000000000000000000000000000081526004016106bf90612558565b60405180910390fd5b6106d28383610d85565b505050565b6106e86106e2610d7d565b82610e3e565b610727576040517f08c379a000000000000000000000000000000000000000000000000000000000815260040161071e906125ea565b60405180910390fd5b610732838383610ed3565b505050565b60016008600082825461074a9190612639565b9250508190555061075d336008546111cc565b610769600854826111ea565b50565b610787838383604051806020016040528060008152506109c5565b505050565b6000600854905090565b6000806107a28361128e565b9050600073ffffffffffffffffffffffffffffffffffffffff168173ffffffffffffffffffffffffffffffffffffffff1603610813576040517f08c379a000000000000000000000000000000000000000000000000000000000815260040161080a906126b9565b60405180910390fd5b80915050919050565b60008073ffffffffffffffffffffffffffffffffffffffff168273ffffffffffffffffffffffffffffffffffffffff160361088c576040517f08c379a00000000000000000000000000000000000000000000000000000000081526004016108839061274b565b60405180910390fd5b600360008373ffffffffffffffffffffffffffffffffffffffff1673ffffffffffffffffffffffffffffffffffffffff168152602001908152602001600020549050919050565b6108db6112cb565b6108e56000611349565b565b67016345785d8a000081565b6000600760009054906101000a900473ffffffffffffffffffffffffffffffffffffffff16905090565b60606001805461092c90612423565b80601f016020809104026020016040519081016040528092919081815260200182805461095890612423565b80156109a55780601f1061097a576101008083540402835291602001916109a5565b820191906000526020600020905b81548152906001019060200180831161098857829003601f168201915b5050505050905090565b6109c16109ba610d7d565b838361140f565b5050565b6109d66109d0610d7d565b83610e3e565b610a15576040517f08c379a0000000000000000000000000000000000000000000000000000000008152600401610a0c906125ea565b60405180910390fd5b610a218484848461157b565b50505050565b6060610a3282610d32565b6000600660008481526020019081526020016000208054610a5290612423565b80601f0160208091040260200160405190810160405280929190818152602001828054610a7e90612423565b8015610acb5780601f10610aa057610100808354040283529160200191610acb565b820191906000526020600020905b815481529060010190602001808311610aae57829003601f168201915b505050505090506000610adc6115d7565b90506000815103610af1578192505050610b34565b600082511115610b26578082604051602001610b0e9291906127a7565b60405160208183030381529060405292505050610b34565b610b2f846115ee565b925050505b919050565b6000600560008473ffffffffffffffffffffffffffffffffffffffff1673ffffffffffffffffffffffffffffffffffffffff16815260200190815260200160002060008373ffffffffffffffffffffffffffffffffffffffff1673ffffffffffffffffffffffffffffffffffffffff16815260200190815260200160002060009054906101000a900460ff16905092915050565b610bd56112cb565b600073ffffffffffffffffffffffffffffffffffffffff168173ffffffffffffffffffffffffffffffffffffffff1603610c44576040517f08c379a0000000000000000000000000000000000000000000000000000000008152600401610c3b9061283d565b60405180910390fd5b610c4d81611349565b50565b60007f80ac58cd000000000000000000000000000000000000000000000000000000007bffffffffffffffffffffffffffffffffffffffffffffffffffffffff1916827bffffffffffffffffffffffffffffffffffffffffffffffffffffffff19161480610d1b57507f5b5e139f000000000000000000000000000000000000000000000000000000007bffffffffffffffffffffffffffffffffffffffffffffffffffffffff1916827bffffffffffffffffffffffffffffffffffffffffffffffffffffffff1916145b80610d2b5750610d2a82611656565b5b9050919050565b610d3b816116c0565b610d7a576040517f08c379a0000000000000000000000000000000000000000000000000000000008152600401610d71906126b9565b60405180910390fd5b50565b600033905090565b816004600083815260200190815260200160002060006101000a81548173ffffffffffffffffffffffffffffffffffffffff021916908373ffffffffffffffffffffffffffffffffffffffff160217905550808273ffffffffffffffffffffffffffffffffffffffff16610df883610796565b73ffffffffffffffffffffffffffffffffffffffff167f8c5be1e5ebec7d5bd14f71427d1e84f3dd0314c0f7b2291e5b200ac8c7c3b92560405160405180910390a45050565b600080610e4a83610796565b90508073ffffffffffffffffffffffffffffffffffffffff168473ffffffffffffffffffffffffffffffffffffffff161480610e8c5750610e8b8185610b39565b5b80610eca57508373ffffffffffffffffffffffffffffffffffffffff16610eb28461057a565b73ffffffffffffffffffffffffffffffffffffffff16145b91505092915050565b8273ffffffffffffffffffffffffffffffffffffffff16610ef382610796565b73ffffffffffffffffffffffffffffffffffffffff1614610f49576040517f08c379a0000000000000000000000000000000000000000000000000000000008152600401610f40906128cf565b60405180910390fd5b600073ffffffffffffffffffffffffffffffffffffffff168273ffffffffffffffffffffffffffffffffffffffff1603610fb8576040517f08c379a0000000000000000000000000000000000000000000000000000000008152600401610faf90612961565b60405180910390fd5b610fc58383836001611701565b8273ffffffffffffffffffffffffffffffffffffffff16610fe582610796565b73ffffffffffffffffffffffffffffffffffffffff161461103b576040517f08c379a0000000000000000000000000000000000000000000000000000000008152600401611032906128cf565b60405180910390fd5b6004600082815260200190815260200160002060006101000a81549073ffffffffffffffffffffffffffffffffffffffff02191690556001600360008573ffffffffffffffffffffffffffffffffffffffff1673ffffffffffffffffffffffffffffffffffffffff168152602001908152602001600020600082825403925050819055506001600360008473ffffffffffffffffffffffffffffffffffffffff1673ffffffffffffffffffffffffffffffffffffffff16815260200190815260200160002060008282540192505081905550816002600083815260200190815260200160002060006101000a81548173ffffffffffffffffffffffffffffffffffffffff021916908373ffffffffffffffffffffffffffffffffffffffff160217905550808273ffffffffffffffffffffffffffffffffffffffff168473ffffffffffffffffffffffffffffffffffffffff167fddf252ad1be2c89b69c2b068fc378daa952ba7f163c4a11628f55a4df523b3ef60405160405180910390a46111c78383836001611707565b505050565b6111e682826040518060200160405280600081525061170d565b5050565b6111f3826116c0565b611232576040517f08c379a0000000000000000000000000000000000000000000000000000000008152600401611229906129f3565b60405180910390fd5b806006600084815260200190815260200160002090816112529190612bbf565b507ff8e1a15aba9398e019f0b49df1a4fde98ee17ae345cb5f6b5e2c27f5033e8ce78260405161128291906121dc565b60405180910390a15050565b60006002600083815260200190815260200160002060009054906101000a900473ffffffffffffffffffffffffffffffffffffffff169050919050565b6112d3610d7d565b73ffffffffffffffffffffffffffffffffffffffff166112f16108f3565b73ffffffffffffffffffffffffffffffffffffffff1614611347576040517f08c379a000000000000000000000000000000000000000000000000000000000815260040161133e90612cdd565b60405180910390fd5b565b6000600760009054906101000a900473ffffffffffffffffffffffffffffffffffffffff16905081600760006101000a81548173ffffffffffffffffffffffffffffffffffffffff021916908373ffffffffffffffffffffffffffffffffffffffff1602179055508173ffffffffffffffffffffffffffffffffffffffff168173ffffffffffffffffffffffffffffffffffffffff167f8be0079c531659141344cd1fd0a4f28419497f9722a3daafe3b4186f6b6457e060405160405180910390a35050565b8173ffffffffffffffffffffffffffffffffffffffff168373ffffffffffffffffffffffffffffffffffffffff160361147d576040517f08c379a000000000000000000000000000000000000000000000000000000000815260040161147490612d49565b60405180910390fd5b80600560008573ffffffffffffffffffffffffffffffffffffffff1673ffffffffffffffffffffffffffffffffffffffff16815260200190815260200160002060008473ffffffffffffffffffffffffffffffffffffffff1673ffffffffffffffffffffffffffffffffffffffff16815260200190815260200160002060006101000a81548160ff0219169083151502179055508173ffffffffffffffffffffffffffffffffffffffff168373ffffffffffffffffffffffffffffffffffffffff167f17307eab39ab6107e8899845ad3d59bd9653f200f220920489ca2b5937696c318360405161156e9190611e04565b60405180910390a3505050565b611586848484610ed3565b61159284848484611768565b6115d1576040517f08c379a00000000000000000000000000000000000000000000000000000000081526004016115c890612ddb565b60405180910390fd5b50505050565b606060405180602001604052806000815250905090565b60606115f982610d32565b60006116036115d7565b90506000815111611623576040518060200160405280600081525061164e565b8061162d846118ef565b60405160200161163e9291906127a7565b6040516020818303038152906040525b915050919050565b60007f01ffc9a7000000000000000000000000000000000000000000000000000000007bffffffffffffffffffffffffffffffffffffffffffffffffffffffff1916827bffffffffffffffffffffffffffffffffffffffffffffffffffffffff1916149050919050565b60008073ffffffffffffffffffffffffffffffffffffffff166116e28361128e565b73ffffffffffffffffffffffffffffffffffffffff1614159050919050565b50505050565b50505050565b61171783836119bd565b6117246000848484611768565b611763576040517f08c379a000000000000000000000000000000000000000000000000000000000815260040161175a90612ddb565b60405180910390fd5b505050565b60006117898473ffffffffffffffffffffffffffffffffffffffff16611bda565b156118e2578373ffffffffffffffffffffffffffffffffffffffff1663150b7a026117b2610d7d565b8786866040518563ffffffff1660e01b81526004016117d49493929190612e50565b6020604051808303816000875af192505050801561181057506040513d601f19601f8201168201806040525081019061180d9190612eb1565b60015b611892573d8060008114611840576040519150601f19603f3d011682016040523d82523d6000602084013e611845565b606091505b50600081510361188a576040517f08c379a000000000000000000000000000000000000000000000000000000000815260040161188190612ddb565b60405180910390fd5b805181602001fd5b63150b7a0260e01b7bffffffffffffffffffffffffffffffffffffffffffffffffffffffff1916817bffffffffffffffffffffffffffffffffffffffffffffffffffffffff1916149150506118e7565b600190505b949350505050565b6060600060016118fe84611bfd565b01905060008167ffffffffffffffff81111561191d5761191c612059565b5b6040519080825280601f01601f19166020018201604052801561194f5781602001600182028036833780820191505090505b509050600082602001820190505b6001156119b2578080600190039150507f3031323334353637383961626364656600000000000000000000000000000000600a86061a8153600a85816119a6576119a5612ede565b5b0494506000850361195d575b819350505050919050565b600073ffffffffffffffffffffffffffffffffffffffff168273ffffffffffffffffffffffffffffffffffffffff1603611a2c576040517f08c379a0000000000000000000000000000000000000000000000000000000008152600401611a2390612f59565b60405180910390fd5b611a35816116c0565b15611a75576040517f08c379a0000000000000000000000000000000000000000000000000000000008152600401611a6c90612fc5565b60405180910390fd5b611a83600083836001611701565b611a8c816116c0565b15611acc576040517f08c379a0000000000000000000000000000000000000000000000000000000008152600401611ac390612fc5565b60405180910390fd5b6001600360008473ffffffffffffffffffffffffffffffffffffffff1673ffffffffffffffffffffffffffffffffffffffff16815260200190815260200160002060008282540192505081905550816002600083815260200190815260200160002060006101000a81548173ffffffffffffffffffffffffffffffffffffffff021916908373ffffffffffffffffffffffffffffffffffffffff160217905550808273ffffffffffffffffffffffffffffffffffffffff16600073ffffffffffffffffffffffffffffffffffffffff167fddf252ad1be2c89b69c2b068fc378daa952ba7f163c4a11628f55a4df523b3ef60405160405180910390a4611bd6600083836001611707565b5050565b6000808273ffffffffffffffffffffffffffffffffffffffff163b119050919050565b600080600090507a184f03e93ff9f4daa797ed6e38ed64bf6a1f0100000000000000008310611c5b577a184f03e93ff9f4daa797ed6e38ed64bf6a1f0100000000000000008381611c5157611c50612ede565b5b0492506040810190505b6d04ee2d6d415b85acef81000000008310611c98576d04ee2d6d415b85acef81000000008381611c8e57611c8d612ede565b5b0492506020810190505b662386f26fc100008310611cc757662386f26fc100008381611cbd57611cbc612ede565b5b0492506010810190505b6305f5e1008310611cf0576305f5e1008381611ce657611ce5612ede565b5b0492506008810190505b6127108310611d15576127108381611d0b57611d0a612ede565b5b0492506004810190505b60648310611d385760648381611d2e57611d2d612ede565b5b0492506002810190505b600a8310611d47576001810190505b80915050919050565b6000604051905090565b600080fd5b600080fd5b60007fffffffff0000000000000000000000000000000000000000000000000000000082169050919050565b611d9981611d64565b8114611da457600080fd5b50565b600081359050611db681611d90565b92915050565b600060208284031215611dd257611dd1611d5a565b5b6000611de084828501611da7565b91505092915050565b60008115159050919050565b611dfe81611de9565b82525050565b6000602082019050611e196000830184611df5565b92915050565b600081519050919050565b600082825260208201905092915050565b60005b83811015611e59578082015181840152602081019050611e3e565b60008484015250505050565b6000601f19601f8301169050919050565b6000611e8182611e1f565b611e8b8185611e2a565b9350611e9b818560208601611e3b565b611ea481611e65565b840191505092915050565b60006020820190508181036000830152611ec98184611e76565b905092915050565b6000819050919050565b611ee481611ed1565b8114611eef57600080fd5b50565b600081359050611f0181611edb565b92915050565b600060208284031215611f1d57611f1c611d5a565b5b6000611f2b84828501611ef2565b91505092915050565b600073ffffffffffffffffffffffffffffffffffffffff82169050919050565b6000611f5f82611f34565b9050919050565b611f6f81611f54565b82525050565b6000602082019050611f8a6000830184611f66565b92915050565b611f9981611f54565b8114611fa457600080fd5b50565b600081359050611fb681611f90565b92915050565b60008060408385031215611fd357611fd2611d5a565b5b6000611fe185828601611fa7565b9250506020611ff285828601611ef2565b9150509250929050565b60008060006060848603121561201557612014611d5a565b5b600061202386828701611fa7565b935050602061203486828701611fa7565b925050604061204586828701611ef2565b9150509250925092565b600080fd5b600080fd5b7f4e487b7100000000000000000000000000000000000000000000000000000000600052604160045260246000fd5b61209182611e65565b810181811067ffffffffffffffff821117156120b0576120af612059565b5b80604052505050565b60006120c3611d50565b90506120cf8282612088565b919050565b600067ffffffffffffffff8211156120ef576120ee612059565b5b6120f882611e65565b9050602081019050919050565b82818337600083830152505050565b6000612127612122846120d4565b6120b9565b90508281526020810184848401111561214357612142612054565b5b61214e848285612105565b509392505050565b600082601f83011261216b5761216a61204f565b5b813561217b848260208601612114565b91505092915050565b60006020828403121561219a57612199611d5a565b5b600082013567ffffffffffffffff8111156121b8576121b7611d5f565b5b6121c484828501612156565b91505092915050565b6121d681611ed1565b82525050565b60006020820190506121f160008301846121cd565b92915050565b60006020828403121561220d5761220c611d5a565b5b600061221b84828501611fa7565b91505092915050565b61222d81611de9565b811461223857600080fd5b50565b60008135905061224a81612224565b92915050565b6000806040838503121561226757612266611d5a565b5b600061227585828601611fa7565b92505060206122868582860161223b565b9150509250929050565b600067ffffffffffffffff8211156122ab576122aa612059565b5b6122b482611e65565b9050602081019050919050565b60006122d46122cf84612290565b6120b9565b9050828152602081018484840111156122f0576122ef612054565b5b6122fb848285612105565b509392505050565b600082601f8301126123185761231761204f565b5b81356123288482602086016122c1565b91505092915050565b6000806000806080858703121561234b5761234a611d5a565b5b600061235987828801611fa7565b945050602061236a87828801611fa7565b935050604061237b87828801611ef2565b925050606085013567ffffffffffffffff81111561239c5761239b611d5f565b5b6123a887828801612303565b91505092959194509250565b600080604083850312156123cb576123ca611d5a565b5b60006123d985828601611fa7565b92505060206123ea85828601611fa7565b9150509250929050565b7f4e487b7100000000000000000000000000000000000000000000000000000000600052602260045260246000fd5b6000600282049050600182168061243b57607f821691505b60208210810361244e5761244d6123f4565b5b50919050565b7f4552433732313a20617070726f76616c20746f2063757272656e74206f776e6560008201527f7200000000000000000000000000000000000000000000000000000000000000602082015250565b60006124b0602183611e2a565b91506124bb82612454565b604082019050919050565b600060208201905081810360008301526124df816124a3565b9050919050565b7f4552433732313a20617070726f76652063616c6c6572206973206e6f7420746f60008201527f6b656e206f776e6572206f7220617070726f76656420666f7220616c6c000000602082015250565b6000612542603d83611e2a565b915061254d826124e6565b604082019050919050565b6000602082019050818103600083015261257181612535565b9050919050565b7f4552433732313a2063616c6c6572206973206e6f7420746f6b656e206f776e6560008201527f72206f7220617070726f76656400000000000000000000000000000000000000602082015250565b60006125d4602d83611e2a565b91506125df82612578565b604082019050919050565b60006020820190508181036000830152612603816125c7565b9050919050565b7f4e487b7100000000000000000000000000000000000000000000000000000000600052601160045260246000fd5b600061264482611ed1565b915061264f83611ed1565b92508282019050808211156126675761266661260a565b5b92915050565b7f4552433732313a20696e76616c696420746f6b656e2049440000000000000000600082015250565b60006126a3601883611e2a565b91506126ae8261266d565b602082019050919050565b600060208201905081810360008301526126d281612696565b9050919050565b7f4552433732313a2061646472657373207a65726f206973206e6f74206120766160008201527f6c6964206f776e65720000000000000000000000000000000000000000000000602082015250565b6000612735602983611e2a565b9150612740826126d9565b604082019050919050565b6000602082019050818103600083015261276481612728565b9050919050565b600081905092915050565b600061278182611e1f565b61278b818561276b565b935061279b818560208601611e3b565b80840191505092915050565b60006127b38285612776565b91506127bf8284612776565b91508190509392505050565b7f4f776e61626c653a206e6577206f776e657220697320746865207a65726f206160008201527f6464726573730000000000000000000000000000000000000000000000000000602082015250565b6000612827602683611e2a565b9150612832826127cb565b604082019050919050565b600060208201905081810360008301526128568161281a565b9050919050565b7f4552433732313a207472616e736665722066726f6d20696e636f72726563742060008201527f6f776e6572000000000000000000000000000000000000000000000000000000602082015250565b60006128b9602583611e2a565b91506128c48261285d565b604082019050919050565b600060208201905081810360008301526128e8816128ac565b9050919050565b7f4552433732313a207472616e7366657220746f20746865207a65726f2061646460008201527f7265737300000000000000000000000000000000000000000000000000000000602082015250565b600061294b602483611e2a565b9150612956826128ef565b604082019050919050565b6000602082019050818103600083015261297a8161293e565b9050919050565b7f45524337323155524953746f726167653a2055524920736574206f66206e6f6e60008201527f6578697374656e7420746f6b656e000000000000000000000000000000000000602082015250565b60006129dd602e83611e2a565b91506129e882612981565b604082019050919050565b60006020820190508181036000830152612a0c816129d0565b9050919050565b60008190508160005260206000209050919050565b60006020601f8301049050919050565b600082821b905092915050565b600060088302612a757fffffffffffffffffffffffffffffffffffffffffffffffffffffffffffffffff82612a38565b612a7f8683612a38565b95508019841693508086168417925050509392505050565b6000819050919050565b6000612abc612ab7612ab284611ed1565b612a97565b611ed1565b9050919050565b6000819050919050565b612ad683612aa1565b612aea612ae282612ac3565b848454612a45565b825550505050565b600090565b612aff612af2565b612b0a818484612acd565b505050565b5b81811015612b2e57612b23600082612af7565b600181019050612b10565b5050565b601f821115612b7357612b4481612a13565b612b4d84612a28565b81016020851015612b5c578190505b612b70612b6885612a28565b830182612b0f565b50505b505050565b600082821c905092915050565b6000612b9660001984600802612b78565b1980831691505092915050565b6000612baf8383612b85565b9150826002028217905092915050565b612bc882611e1f565b67ffffffffffffffff811115612be157612be0612059565b5b612beb8254612423565b612bf6828285612b32565b600060209050601f831160018114612c295760008415612c17578287015190505b612c218582612ba3565b865550612c89565b601f198416612c3786612a13565b60005b82811015612c5f57848901518255600182019150602085019450602081019050612c3a565b86831015612c7c5784890151612c78601f891682612b85565b8355505b6001600288020188555050505b505050505050565b7f4f776e61626c653a2063616c6c6572206973206e6f7420746865206f776e6572600082015250565b6000612cc7602083611e2a565b9150612cd282612c91565b602082019050919050565b60006020820190508181036000830152612cf681612cba565b9050919050565b7f4552433732313a20617070726f766520746f2063616c6c657200000000000000600082015250565b6000612d33601983611e2a565b9150612d3e82612cfd565b602082019050919050565b60006020820190508181036000830152612d6281612d26565b9050919050565b7f4552433732313a207472616e7366657220746f206e6f6e20455243373231526560008201527f63656976657220696d706c656d656e7465720000000000000000000000000000602082015250565b6000612dc5603283611e2a565b9150612dd082612d69565b604082019050919050565b60006020820190508181036000830152612df481612db8565b9050919050565b600081519050919050565b600082825260208201905092915050565b6000612e2282612dfb565b612e2c8185612e06565b9350612e3c818560208601611e3b565b612e4581611e65565b840191505092915050565b6000608082019050612e656000830187611f66565b612e726020830186611f66565b612e7f60408301856121cd565b8181036060830152612e918184612e17565b905095945050505050565b600081519050612eab81611d90565b92915050565b600060208284031215612ec757612ec6611d5a565b5b6000612ed584828501612e9c565b91505092915050565b7f4e487b7100000000000000000000000000000000000000000000000000000000600052601260045260246000fd5b7f4552433732313a206d696e7420746f20746865207a65726f2061646472657373600082015250565b6000612f43602083611e2a565b9150612f4e82612f0d565b602082019050919050565b60006020820190508181036000830152612f7281612f36565b9050919050565b7f4552433732313a20746f6b656e20616c7265616479206d696e74656400000000600082015250565b6000612faf601c83611e2a565b9150612fba82612f79565b602082019050919050565b60006020820190508181036000830152612fde81612fa2565b905091905056fea2646970667358221220940261fe6850908fb0049df04ad5b828baddcccf61b1b39ae479d04fd83e63e164736f6c63430008130033",
  "immutableReferences": {},
  "source": "// SPDX-License-Identifier: MIT\r\npragma solidity ^0.8.19;\r\n\r\nimport \"@openzeppelin/contracts/token/ERC721/extensions/ERC721URIStorage.sol\";\r\nimport \"@openzeppelin/contracts/access/Ownable.sol\";\r\n\r\n// Contract for Token71\r\ncontract Token71 is ERC721URIStorage, Ownable {\r\n    uint256 public constant PRICE = 0.1 ether;\r\n    uint256 private _currentTokenId;\r\n\r\n    constructor() ERC721(\"Token71\", \"T71\") Ownable() {\r\n        //_currentTokenId = 0;\r\n    }\r\n\r\n    function mintToken(string memory tokenURI) external payable {\r\n\r\n        _currentTokenId += 1;\r\n        _safeMint(msg.sender, _currentTokenId);\r\n        _setTokenURI(_currentTokenId, tokenURI);\r\n    }\r\n\r\n    function getCurrentTokenId() external view returns (uint256) {\r\n        return _currentTokenId;\r\n    }\r\n}\r\n\r\n\r\n",
  "sourcePath": "D:\\Token_Market\\contracts\\Token71.sol",
  "compiler": {
    "name": "solc",
    "version": "0.8.19+commit.7dd6d404.Emscripten.clang"
  },
  "schemaVersion": "3.4.16",
  "updatedAt": "2025-02-13T08:18:23.231Z",
  "networkType": "ethereum",
  "devdoc": {
    "events": {
      "Approval(address,address,uint256)": {
        "details": "Emitted when `owner` enables `approved` to manage the `tokenId` token."
      },
      "ApprovalForAll(address,address,bool)": {
        "details": "Emitted when `owner` enables or disables (`approved`) `operator` to manage all of its assets."
      },
      "BatchMetadataUpdate(uint256,uint256)": {
        "details": "This event emits when the metadata of a range of tokens is changed. So that the third-party platforms such as NFT market could timely update the images and related attributes of the NFTs."
      },
      "MetadataUpdate(uint256)": {
        "details": "This event emits when the metadata of a token is changed. So that the third-party platforms such as NFT market could timely update the images and related attributes of the NFT."
      },
      "Transfer(address,address,uint256)": {
        "details": "Emitted when `tokenId` token is transferred from `from` to `to`."
      }
    },
    "kind": "dev",
    "methods": {
      "approve(address,uint256)": {
        "details": "See {IERC721-approve}."
      },
      "balanceOf(address)": {
        "details": "See {IERC721-balanceOf}."
      },
      "getApproved(uint256)": {
        "details": "See {IERC721-getApproved}."
      },
      "isApprovedForAll(address,address)": {
        "details": "See {IERC721-isApprovedForAll}."
      },
      "name()": {
        "details": "See {IERC721Metadata-name}."
      },
      "owner()": {
        "details": "Returns the address of the current owner."
      },
      "ownerOf(uint256)": {
        "details": "See {IERC721-ownerOf}."
      },
      "renounceOwnership()": {
        "details": "Leaves the contract without owner. It will not be possible to call `onlyOwner` functions. Can only be called by the current owner. NOTE: Renouncing ownership will leave the contract without an owner, thereby disabling any functionality that is only available to the owner."
      },
      "safeTransferFrom(address,address,uint256)": {
        "details": "See {IERC721-safeTransferFrom}."
      },
      "safeTransferFrom(address,address,uint256,bytes)": {
        "details": "See {IERC721-safeTransferFrom}."
      },
      "setApprovalForAll(address,bool)": {
        "details": "See {IERC721-setApprovalForAll}."
      },
      "supportsInterface(bytes4)": {
        "details": "See {IERC165-supportsInterface}"
      },
      "symbol()": {
        "details": "See {IERC721Metadata-symbol}."
      },
      "tokenURI(uint256)": {
        "details": "See {IERC721Metadata-tokenURI}."
      },
      "transferFrom(address,address,uint256)": {
        "details": "See {IERC721-transferFrom}."
      },
      "transferOwnership(address)": {
        "details": "Transfers ownership of the contract to a new account (`newOwner`). Can only be called by the current owner."
      }
    },
    "version": 1
  },
  "userdoc": {
    "kind": "user",
    "methods": {},
    "version": 1
  }
}